:020000040800F2
:1000000078070020D516000815030008170300081C
:100010001B0300081F030008230300080000000062
:10002000000000000000000000000000270300089E
:1000300029030008000000002B0300082D0300081E
:10004000EF160008EF160008EF160008EF1600087C
:10005000EF160008EF1600082F030008EF1600083F
:10006000EF160008EF160008EF160008EF1600085C
:10007000EF160008EF160008EF160008EF1600084C
:10008000EF160008EF160008EF160008EF1600083C
:10009000EF160008EF160008EF160008EF1600082C
:1000A000EF160008EF160008EF160008EF1600081C
:1000B000EF160008EF160008EF160008EF1600080C
:1000C000EF160008EF160008EF160008EF160008FC
:1000D000EF1600089D380008EF160008EF1600081C
:1000E000EF160008EF160008EF160008EF160008DC
:1000F000EF160008EF160008EF160008EF160008CC
:10010000EF160008EF160008EF160008EF160008BB
:10011000EF1600082F340008EF160008EF1600084D
:10012000EF160008EF160008EF160008EF1600089B
:1001300000F002F800F03FF80AA090E8000C8244BA
:100140008344AAF10107DA4501D100F034F8AFF297
:10015000090EBAE80F0013F0010F18BFFB1A43F0A5
:10016000010318476C4000008C400000103A24BF87
:1001700078C878C1FAD8520724BF30C830C144BF0C
:1001800004680C607047000000230024002500264E
:10019000103A28BF78C1FBD8520728BF30C148BFEA
:1001A0000B607047642903F07584002070471FB509
:1001B0001FBD10B510BD03F037FD1146FFF7F7FF67
:1001C00000F008F803F055FD03B4FFF7F2FF03BC9D
:1001D00003F056FB00BF4FF41651482003F099FB83
:1001E00003F024F803F08AF8454803F0D9F803F047
:1001F00012FB00204349087001F009FA01F03CFAB3
:1002000003F0B3F80DE000F0AFF900F0F3F900F0FF
:1002100038FA00F07CFA00F0C0FA00F006FB00BFEC
:10022000FEE7F0E710B537480078022817D100BF85
:1002300004203549086020203449486108610420C1
:100240003149091F0860202030494861086100BF1A
:1002500000F01FFC2E49087000202A49087010BDCC
:100260004CE0642003F050F84FF4FA7003F01AF8F1
:10027000C82003F049F84FF4FA7003F013F84FF474
:10028000967003F041F84FF4FA7003F00BF84FF456
:10029000C87003F039F84FF4FA7003F003F84FF424
:1002A000FA7003F031F84FF4FA7002F0FBFF4FF4EC
:1002B000167003F029F84FF4FA7002F0F3FF4FF4D0
:1002C000FA7003F021F84FF4FA7002F0EBFF4FF4EC
:1002D000C87003F019F84FF4FA7002F0E3FF4FF41E
:1002E000967003F011F84FF4FA7002F0DBFFC820AB
:1002F00003F00AF84FF4FA7002F0D4FFB1E70000FF
:1003000040420F00B30000201408014000100140DB
:1003100000000020704700BFFEE700BFFEE700BFFF
:10032000FEE700BFFEE7704770477047704710B5A3
:10033000012001F0D1FA08B31148007880B92020DB
:100340001049086008201049086001200C49087015
:1003500008200D49086020200A49091F08600AE0AA
:1003600007480078012806D108200749091D0860C0
:10037000022003490870012001F0BFFA10BD0000FF
:10038000B3000020140C0140101401400CB50020F3
:10039000019000906B48006840F480306949086023
:1003A00000BF6848006800F4003000900198401CCD
:1003B0000190009818B90198B0F5A06FF1D161488B
:1003C000006810F4003F02D00120009001E00020FE
:1003D00000900098012842D15B48006840F010006E
:1003E000594908600846006820F003000860084684
:1003F000006840F002000860524840685149486077
:100400000846406848600846406840F4806048609C
:100410000846406820F47C1048600846406840F474
:10042000E81048600846006840F08070086000BF2F
:100430004448006810F0007FFAD04248406820F03D
:100440000300404948600846406840F002004860A8
:1004500000BF3C48406800F00C000828F9D10CBDF2
:1004600010B5FFF793FF10BD10B53648006840F097
:100470000100344908600846406834490840314961
:10048000486008460068324908402E49086008461E
:10049000006820F4802008600846406820F4FE00D0
:1004A00048604FF41F008860FFF7DAFF4FF00060EC
:1004B0002849086010BD10B5002100200022214B02
:1004C0005B6803F00C0121B1042906D0082928D16A
:1004D00007E0214B214C236027E01F4B1F4C23607A
:1004E00023E0184B5B6803F47010164B5B6803F451
:1004F0008032022303EB904022B9194B4343174C3F
:1005000023600DE00F4B5B6813F4003F04D0144BE5
:100510004343124C236003E00F4B43430F4C2360D3
:1005200003E00D4B0D4C236000BF00BF054B5B6823
:10053000C3F303130B4CE15C084B1B68CB40074C27
:10054000236010BD00100240002002400000FFF8B0
:10055000FFFFF6FE08ED00E000127A000400002024
:1005600000093D000800002010B500243FE096225D
:1005700040F2F511012003F0B2F8962240F2172163
:10058000022003F0ACF896224FF48371032003F0AD
:10059000A6F8962240F2B511042003F0A0F89622A6
:1005A00040F2F911052003F09AF896224FF4F87101
:1005B0000B2003F094F8962240F2E5110C2003F092
:1005C0008EF8962240F206310D2003F088F896222C
:1005D00040F23F210E2003F082F8962240F2FF11F4
:1005E0000F2003F07CF803F0CBF8601CC4B2642C3D
:1005F000BDDB10BD10B5002440E0962240F2F3119F
:10060000012003F06CF8962240F21321022003F03F
:1006100066F896224FF48371032003F060F8962267
:1006200040F2B311042003F05AF84FF4967240F2EE
:100630004721052003F053F8C82240F2EF110B20A8
:1006400003F04DF8C8224FF4F2710C2003F047F884
:10065000C82240F206310D2003F041F8C82240F2D2
:100660003E210E2003F03BF896224FF406710F2036
:1006700003F035F803F084F8601CC4B2642CBCDBD2
:1006800010BD10B500243FE0C82240F2F311012054
:1006900003F025F8C8224FF4DD71022003F01FF8A3
:1006A000C8224FF4AB71032003F019F8C8224FF4AD
:1006B000DA71042003F013F8C82240F24621052025
:1006C00003F00DF8C82240F2EB110B2003F007F8FD
:1006D000C8224FF4F1710C2003F001F8C8224FF446
:1006E00042710D2002F0FBFFC8224FF411710E2061
:1006F00002F0F5FFC8224FF404710F2002F0EFFF63
:1007000003F03EF8601CC4B2642CBDDB10BD10B514
:1007100000243FE0C8224FF4FA71012002F0DFFF0D
:10072000C8224FF4DD71022002F0D9FFC82240F246
:100730005911032002F0D3FFC8224FF4D4710420D2
:1007400002F0CDFFE6224FF4F971052002F0C7FF59
:10075000C8224FF4F7710B2002F0C1FFC82240F20B
:10076000E5110C2002F0BBFFC82240F211310D2030
:1007700002F0B5FFC82240F241210E2002F0AFFF87
:10078000C82240F2FF110F2002F0A9FF02F0F8FF8B
:10079000601CC4B2642CBDDB10BD10B5002441E068
:1007A000C82240F2F111012002F099FFC82240F264
:1007B000DF11022002F093FFC82240F22F11032024
:1007C00002F08DFFC82240F2A711042002F087FF3B
:1007D0004FF4967240F2E311052002F080FFC82228
:1007E0004FF4F6710B2002F07AFFC82240F2ED11AF
:1007F0000C2002F074FFC82240F20F310D2002F0ED
:100800006EFFC82240F249210E2002F068FF4FF42B
:10081000AA724FF4D3710F2002F061FF02F0B0FF13
:10082000601CC4B2642CBBDB10BD10B500243FE0DB
:10083000C82240F2F311012002F051FFC8224FF408
:10084000F971022002F04BFFC8224FF4B27103206D
:1008500002F045FFC8224FF4B071042002F03FFFC0
:10086000C8224FF4F071052002F039FFC82240F28F
:10087000EB110B2002F033FFC8224FF404710C205F
:1008800002F02DFFC82240F20F310D2002F027FFA9
:10089000F02240F235210E2002F021FFDC224FF43D
:1008A000D5710F2002F01BFF02F06AFF601CC4B27A
:1008B000642CBDDB10BD000008B501213C2001F017
:1008C0003BFB10208DF8030003208DF802004FF44D
:1008D0008070ADF800006946FE4801F077F84FF4EB
:1008E0008071FC4801F01DF90820ADF80000694650
:1008F000F94801F06BF82020ADF800006946F74890
:1009000001F064F80C20ADF800006946F14801F0F0
:100910005DF82020ADF800006946F14801F056F876
:100920004FF47F40ADF8000004208DF80300032051
:100930008DF802006946E94801F048F80820E549C9
:1009400014310860E4491031086008BD10B500F0AA
:10095000EFFCFFF7B1FF10BD08B50121042001F045
:10096000EBFA0120ADF8000004208DF8030003200D
:100970008DF802006946D74801F028F808BD08B58F
:100980004FF4C06000F0C6FE06208DF80000002085
:100990008DF8010001208DF802008DF803006846F3
:1009A00000F0BDFE08BD1CB50021084601F022F98B
:1009B0000120009000208DF804000C208DF8050027
:1009C00001208DF80600684600F020FF012000F0AD
:1009D0006CFF1CBD10B5FFF7BFFFFFF7E4FFFFF78B
:1009E000CEFF10BD38B500240020009080211220D9
:1009F00000F0A4FD08B9002038BD0B220121684693
:100A000000F0BCFD08B90020F6E79DF800002128A1
:100A100014D100240DE0B34A02EB44025178B14AEC
:100A200012F8140000F08AFD08B90020E4E7601C09
:100A300084B2AD4800788442EDDB01E00020DBE7C2
:100A40000120D9E710B5002020E0002219E000BF06
:100A500000212023A24C6361A04B08331B6803F4E0
:100A60007F412023236163619C4B08331B68C3F3E0
:100A7000072319432023236100BF9C4B1980531C7B
:100A80009AB2B2F5A07FE2DB431C98B2F028DCDB1F
:100A900010BD2DE9F04F99B00020029080460390E0
:100AA00000264E2004904FF6FF700590002400278A
:100AB00079E1B8F1030F02D0B8F1020F6FD1032C26
:100AC00002DD8BA002F0A6FF04EB440113AA32F969
:100AD000111004EB440213AB03EB4202B2F9022003
:100AE000881800EBD071491009B204EB440203EB03
:100AF0004202918004EB44000EA931F8100004EB8F
:100B000044010EAA02EB4101888004EB440113AAC0
:100B100032F9111004EB440203EB4202B2F9022055
:100B2000881800EBD07149100DB204EB440013A9F2
:100B300001EB4000B0F90400642803DA4FF4784078
:100B400005903AE004EB440013A901EB4000B0F932
:100B50000400872803DA4FF4F04005902DE004EB01
:100B6000440013A901EB4000B0F90400B42824DBD1
:100B700004EB440001EB4000B0F90400C82802DA9D
:100B80000F20059019E004EB440013A901EB40008D
:100B9000B0F90400D22803DA1F2005900DE02DE003
:100BA00004EB440013A901EB4000B0F90400B0F5D8
:100BB000A07F02DA4FF61F00059004EB440013A952
:100BC00001EB4000B0F9020004EB440113AA32F932
:100BD0001110401A962847DD012002900020039052
:100BE000601CC4B204EB440013A901EB4000B0F94F
:100BF0000420214640A002F00DFF35E0B8F1010FBE
:100C00002AD1052E28DA049887422DD10498423043
:100C100080B2049004EB440013A931F8100009A934
:100C200021F8260004EB44000EA931F8100009A9B0
:100C300001EB8601488009A800EB8600B0F90200AC
:100C4000009009A830F92620334631462EA002F044
:100C5000E1FE701CC6B207E04D2F03D0822F01D0F9
:100C6000B72F01D101200390DC2F01DD002003907C
:100C70004FF00008C346C1468FE000BF4FF0000AA6
:100C800020201749486115480830006800F47F4A61
:100C9000202008614861114808300068C0F307202F
:100CA00040EA0A0A2020086100BF0AF01F000890ED
:100CB000CAF3451007904FEADA20069008980C28EE
:100CC00005DA0798192802DA06980C2853DB074939
:100CD00005982BE00008014000140140000C014081
:100CE0000010014018000020B20000200000026047
:100CF00072616E673E320000785B25645D5B325D39
:100D00003D25640A000000007869656C76735B25F8
:100D1000645D5B305D3D25642C7869656C76735B42
:100D200025645D5B315D3D25640A00000880BBF1F0
:100D3000070F2EDD039860B3B8F1030F14DA18998A
:100D400009EB010000EBD071491009B204EB440239
:100D500013AB03EB420222F8181004EB44000EA977
:100D600001EB400020F818704FF0000B08F1010073
:100D70000FFA80F80DE00020FC490880039840B18C
:100D8000BBF1000F01D1CDF860900BF1010000F034
:100D9000FF0B09F101000FFA80F9B9F5A07FFFF60A
:100DA0006CAF781C07B2F02FFFF683AE02980028D4
:100DB0007DD0022C7CD1782D06DAEDA002F02AFE3F
:100DC000052019B0BDE8F08FDC2D04DDEBA002F0AA
:100DD00021FE0120F5E7BE2D04DDE8A002F01AFE99
:100DE0000220EEE7BDF95020BDF956108A4213DD0E
:100DF000BDF95020BDF95610521ABDF94210BDF987
:100E00003C30C81A00EBD07149108A4204DDDEA0E4
:100E100002F000FE0620D4E7BDF95010BDF95600DF
:100E2000814213DDBDF94200BDF93C10401A032197
:100E300090FBF1F1BDF95020BDF95600101A814226
:100E400004DAD1A002F0E6FD0520BAE7BDF9502092
:100E5000BDF956108A4213DABDF95610BDF950207B
:100E60008A1ABDF94210BDF93C30C81A00EBD071A6
:100E700049108A4204DDC6A002F0CCFD0120A0E7A3
:100E8000BDF95010BDF95600814216DABDF9420095
:100E9000BDF93C10401A032190FBF1F1BDF9560059
:100EA000BDF95020801A814207DAB9A001E04FE174
:100EB00022E002F0AFFD022083E7BDF95020BDF92A
:100EC00056108A4214DABDF95610BDF950208A1A1C
:100ED000BDF94210BDF93C30C81AC11700EB917141
:100EE00089108A4204DDAAA002F094FD032068E77D
:100EF000A9A002F08FFDFBE0032C7DD1782D04DA50
:100F00009BA002F087FD05205BE7DC2D04DD9BA0A4
:100F100002F080FD012054E7BE2D04DD97A002F011
:100F200079FD02204DE7BDF95030BDF95C209342B8
:100F300024DDBDF95030BDF956209B1ABDF9422081
:100F4000BDF93CC0A2EB0C0101EBD17252109342EF
:100F500014DDBDF95030BDF95C209B1ABDF9482065
:100F6000BDF93CC0A2EB0C0000EBD07252109342D2
:100F700004DD8CA002F04EFD062022E7BDF95010E2
:100F8000BDF95C00814222DDBDF94200BDF93C1093
:100F9000401A032190FBF1F1BDF95020BDF9560034
:100FA000101A814213DABDF94800BDF93C10401A0D
:100FB000032190FBF1F1BDF95020BDF95C00101A3E
:100FC000814204DA77A002F025FD0520F9E6BDF99B
:100FD0005010BDF95600814229DABDF94200BDF931
:100FE0003C10401A032190FBF1F1BDF95600BDF908
:100FF0005020801A814200E079E018DABDF95C10D7
:10100000BDF95600091ABDF94820BDF94200101A71
:10101000B1EB400F01DD012000E00020052190FB35
:10102000F1F020B161A002F0F5FC0120C9E6BDF9A4
:101030005020BDF956108A4228DABDF95610BDF984
:1010400050208A1ABDF94210BDF93C30C81AC117A8
:1010500000EB917189108A4218DDBDF95C20BDF961
:101060005610521ABDF94830BDF94210591AB2EB68
:10107000410F01DD012100E00021052291FBF2F189
:1010800021B14AA002F0C6FC02209AE6BDF9503018
:10109000BDF95620934226DABDF95620BDF95030ED
:1010A000D21ABDF94230BDF93CC0A3EB0C01CB17FD
:1010B00001EB93739B109A4215DDBDF95C30BDF9CD
:1010C00056209A1ABDF948C0BDF94230ACEB030076
:1010D000C31700EB93739B109A4204DD33A002F018
:1010E00099FC03206DE62CA002F094FC00E000BF08
:1010F000642D04DA2FA002F08DFC062061E6872D16
:1011000004DA2FA002F086FC05205AE6B42D04DA9A
:101110002EA002F07FFC042053E6BE2D04DA17A0B7
:1011200002F078FC03204CE6DC2D04DA2AA002F061
:1011300071FC022045E6B5F5A07F04DA29A002F093
:1011400069FC01203DE62AA002F064FC042038E698
:10115000012E7DDD701EC6B2012E66D1BDF92800BC
:10116000BDF92410401A07284DDD47E00000026059
:1011700032CDBCCFF1B4F3D3D2B9D500CDBCCFF1D1
:10118000D0A1D7F3B9D5000032D3D2B9D500000031
:1011900032D7F3B9D5000000676F746F205A5A55E3
:1011A0000000000033D3D2B9D500000033D7F3B923
:1011B000D5000000CDBCCFF1B4F3D3D2B9D5000037
:1011C000CDBCCFF1D3D2B9D500000000CDBCCFF15A
:1011D000D6B1D0D000000000CDBCCFF3D7F3B9D545
:1011E00000000000CDBCCFF1B4F3D7F3B9D50000B7
:1011F000CDBCCFF1CEB4C5D0B6CF000031A002F047
:1012000009FC0620DDE5BDF92800BDF92410401ACF
:1012100010F1070F04DA2EA002F0FCFB0220D0E54B
:101220002EA002F0F7FB0420CBE5022E40D1BDF941
:101230002400BDF92810411ABDF92800BDF92C2061
:10124000801A801E814206DA27A002F0E3FB00E04C
:1012500033E00120B5E5BDF92800BDF92410401A9E
:1012600007280BDDBDF92C00BDF92410401A0C280D
:1012700004DD20A002F0CEFB0620A2E5BDF9280087
:10128000BDF92410401A10F1070F0CDABDF92C003B
:10129000BDF92410401A10F10C0F04DA18A002F066
:1012A000B9FB02208DE519A002F0B4FB042088E50B
:1012B00019A002F0AFFB042083E51AA002F0AAFBFC
:1012C00004207EE5D2BBB6FED3D2B9D50000000023
:1012D000D2BBB6FED7F3B9D500000000D2BBB6FE34
:1012E000D6B1D0D000000000CDE4B5C0D7F3B9D559
:1012F00000000000D2BBC8FDD3D2B9D50000000069
:10130000D2BBC8FDD7F3B9D500000000D2BBC8FDE1
:10131000D6B1D0D000000000D0B1C2CAD6B1D0D072
:1013200000000000D0B1C2CACEB4C5D0B6CF000014
:1013300008B50121102000F0FFFDC020ADF800002D
:1013400003208DF8020014208DF803006946AA4896
:1013500000F03CFB08BD4FF4C87001E0411E88B2AC
:101360000028FBD1704710B58021A34800F0D9FBBD
:101370004021A14800F0D5FBFFF7EDFF80219E48FA
:1013800000F0B5FB08B9002010BD80219A4800F09C
:10139000CAFBFFF7E0FF8021974800F0A8FB08B1E7
:1013A0000020F1E78021944800F0BDFBFFF7D3FF58
:1013B0000120E9E710B540218F4800F0B4FBFFF7AA
:1013C000CAFF80218C4800F0AEFBFFF7C4FF40212C
:1013D000894800F0A6FBFFF7BEFF8021864800F099
:1013E000A0FBFFF7B8FF10BD10B54021824800F008
:1013F0009AFBFFF7B0FF80217F4800F094FBFFF7D6
:10140000AAFF40217C4800F08CFBFFF7A4FF40219D
:10141000794800F088FBFFF79EFF10BD10B5402112
:10142000754800F080FBFFF796FF8021724800F0BE
:1014300078FBFFF790FF40216F4800F072FBFFF749
:101440008AFF40216C4800F06EFBFFF784FF10BD5F
:1014500010B54021684800F066FBFFF77CFF802153
:10146000654800F05EFBFFF776FF4021624800F020
:1014700058FBFFF770FF80215F4800F038FB28B170
:1014800040215D4800F04FFB002010BD40215A482C
:1014900000F049FB0120F8E770B5044608251BE081
:1014A0004021554800F03FFBFFF755FF14F0800F37
:1014B00004D08021504800F034FB03E080214E48E6
:1014C00000F031FB6006040EFFF745FF40214A485B
:1014D00000F027FBFFF73FFF2800A5F10101CDB287
:1014E000DED14021444800F01EFB70BD70B50825D8
:1014F00000248021404800F014FB14E06006040E34
:1015000040213D4800F00FFBFFF725FF40213A48FE
:1015100000F007FBFFF71FFF8021374800F0E7FAD4
:1015200008B144F001042800A5F10101CDB2E5D1D4
:101530004021314800F0F7FA204670BD70B50446EE
:101540000D46FFF710FF08B9002070BD4220FFF7DD
:10155000A3FFFFF77DFF18B9FFF72CFF0020F4E78A
:10156000E0B2FFF799FFFFF773FF2846FFF794FFFC
:10157000FFF76EFFFFF71EFF0120E6E770B5054697
:101580000C461646FFF7EFFE08B9002070BD42205A
:10159000FFF782FFFFF75CFF18B9FFF70BFF002092
:1015A000F4E73046FFF778FFFFF752FFFFF702FF3F
:1015B000FFF7D9FE08B90020E8E74320FFF76CFFEA
:1015C000FFF746FF18B9FFF7F5FE0020DEE70CE055
:1015D000FFF78CFF2870012C02D1FFF71FFF01E0FD
:1015E000FFF702FF6D1C601E84B2002CF0D1FFF7E4
:1015F000E1FE0120CAE700000010014001B502E051
:101600000098401E009000980028F9D108BD08B548
:101610000121102000F090FC4FF40050ADF80000C4
:1016200048208DF803006946124800F0CFF908BD44
:1016300070B505460E4614463146284600F057FA66
:10164000A04214D142F21070FFF7D8FF314628466D
:1016500000F04DFAA04208D100BF3146284600F004
:1016600046FAA042F9D0002070BD0120FCE701201D
:10167000FAE700000010014008B50121182000F031
:101680005BFC0120ADF8000010208DF80300032062
:101690008DF8020069460D4800F098F90820ADF871
:1016A000000069460A4800F091F91020ADF80000EA
:1016B0006946074800F08AF90121044800F031FA30
:1016C0001821034800F02DFA08BD0000000C01406D
:1016D000001001400948804709480047FEE7FEE73F
:1016E000FEE7FEE7FEE7FEE7FEE7FEE7FEE7FEE7D2
:1016F00004480549054A064B704700006904000884
:1017000031010008780100207807002078030020CC
:101710007803002031490143314A1160704770B5A8
:10172000002100230F22C4780CB32D4C246804F44C
:10173000E064C4F5E064210AC1F10403CA404478BE
:1017400004FA03F18478144021430901254C0678FA
:10175000A155047804F01F050124AC4005786D11F3
:101760004FF0E02606EB8505C5F8004109E0047856
:1017700004F01F050124AC401B4D0678761145F896
:10178000264070BD194A0A400243154B1B1F1A60C0
:10179000704739B1124A121D12680243104B1B1DCB
:1017A0001A6006E00E4A121D126882430C4B1B1D84
:1017B0001A607047042808D14FF0E021096941F010
:1017C00004014FF0E022116107E04FF0E0210969C8
:1017D00021F004014FF0E022116170470000FA058A
:1017E0000CED00E000E400E080E100E080FFFF1F7E
:1017F000002044490860091D0860091D0860091D92
:10180000086041483F4914310860704700213D4954
:101810008279002A3AD00A46126803689A430B4636
:101820001A600A1D126803689A430B1D1A60027938
:1018300011440A6803681A430A60324A083212687F
:1018400003689A432F4B08331A601A1D1268036805
:101850009A432C4B0C331A604279102A0ED11A1F6E
:10186000126803681A43274B08331A601A1D12685E
:1018700003681A43234B0C331A600DE02149427967
:1018800011440A6803681A430A6005E002791144AA
:101890000A6803689A430A60704700210160017179
:1018A0000C2141710021817170471649103109687E
:1018B0000143144A10321160704701460020114A5A
:1018C000143212680A4201D0012000E00020704763
:1018D0000C49143108607047014600200022094B72
:1018E0001B6803EA0102074B14331B680B4202D04A
:1018F0000AB1012000E0002070470249143108605D
:101900007047000000040140FFFF0F0010B50446BF
:10191000CA48844208D10121042000F027FB00219D
:10192000042000F023FB46E0C548844208D1012191
:10193000082000F01BFB0021082000F017FB3AE014
:10194000C048844208D10121102000F00FFB002183
:10195000102000F00BFB2EE0BB48844208D101218F
:10196000202000F003FB0021202000F0FFFA22E0FD
:10197000B648844208D10121402000F0F7FA002146
:10198000402000F0F3FA16E0B148844208D101216A
:10199000802000F0EBFA0021802000F0E7FA0AE056
:1019A000AC48844207D10121801500F0DFFA002104
:1019B000A01500F0DBFA10BD10B50121084600F0BB
:1019C000D5FA0021012000F0D1FA10BD2DE9F04137
:1019D000024600250026002000230024002791F85D
:1019E00003C00CF00F0591F803C01CF0100F03D0DA
:1019F00091F802C04CEA050591F800C0BCF1000F57
:101A000031D0146800202BE04FF0010C0CFA00F3E9
:101A1000B1F800C00CEA03069E4220D183004FF0CB
:101A20000F0C0CFA03F7BC4305FA03FC4CEA040460
:101A300091F803C0BCF1280F06D14FF0010C0CFA4D
:101A400000FCC2F814C00AE091F803C0BCF1480FD2
:101A500005D14FF0010C0CFA00FCC2F810C0401C7C
:101A60000828D1D31460B1F800C0BCF1FF0F34DDF9
:101A7000546800202EE000F1080C4FF0010808FA2D
:101A80000CF3B1F800C00CEA03069E4221D183009A
:101A90004FF00F0C0CFA03F7BC4305FA03FC4CEAB9
:101AA000040491F803C0BCF1280F05D100F1080C23
:101AB00008FA0CF8C2F8148091F803C0BCF1480F82
:101AC00007D100F1080C4FF0010808FA0CF8C2F831
:101AD0001080401C0828CED35460BDE8F0814FF63A
:101AE000FF710180022181700421C170704702469C
:101AF000002093680B4201D0012000E000207047D5
:101B00000146886880B2704702460020D3680B42C5
:101B100001D0012000E0002070470146C86880B273
:101B2000704701617047416170470AB1016100E08F
:101B300041617047C16070474FF480320A4382614F
:101B40008161826182698269704702460020424B4E
:101B500018684FF68073184040EA021008433E4B65
:101B6000186070473D49C8617047F0B50A460023C8
:101B700000240021002500F00046B6F1004F02D1FC
:101B8000354EF16901E0344E7168C0F3034583B20C
:101B900000F44016B6F5401F08D121F070612E4EBA
:101BA000766826F070662C4F7E6012E000F4801696
:101BB000B6F5801F06D1032606FA05F4A14341F0CD
:101BC000706106E0460D360103FA06F6B14341F0B6
:101BD000706122B1460D360103FA06F6314300F07A
:101BE0000046B6F1004F02D11B4EF16101E01A4EE2
:101BF0007160F0BD30B500228B071C0F0F2303FA74
:101C000004F2154B08338C1053F824309343124CD4
:101C100008348D1044F8253023468C1053F82430B6
:101C20008C07240F00FA04F423430B4C08348D1066
:101C300044F8253030BD0A4908607047000801406B
:101C4000000C014000100140001401400018014048
:101C5000001C014000200140000001400000204223
:101C6000DC002042DD48006840F00100DB490860EC
:101C700008464068DA490840D84948600846006884
:101C8000D8490840D54908600846006820F48020FB
:101C900008600846406820F4FE0048604FF41F00CA
:101CA00088607047CD49096821F48031CB4A1160C2
:101CB0001146096821F480211160B0F5803F03D0FE
:101CC000B0F5802F0ED106E0C449096841F4803197
:101CD000C24A116007E0C149096841F4A021BF4A26
:101CE000116000E000BF00BF704710B50146002240
:101CF000002300204A11012A02D1B84C236806E0D3
:101D0000022A02D1B54C236A01E0B44C636A01F0A7
:101D10001F02012494401C4201D0012000E0002059
:101D200010BD38B5002000900024002500BF3120F0
:101D3000FFF7DBFF05460098401C00900098B0F5C7
:101D4000A06F01D0002DF2D03120FFF7CEFF08B1F7
:101D5000012400E00024204638BD014600209F4AAF
:101D6000106820F0F80040EAC100106070479E49FA
:101D70000860704702460020984B586820F47C1099
:101D800042EA01031843954B58607047964908662C
:101D9000704701460020914A506820F00300084334
:101DA000506070478D48406800F00C007047014655
:101DB00000208A4A506820F0F000084350607047C5
:101DC00001460020854A506820F4E06008435060D6
:101DD000704701460020814A506820F4605040EA74
:101DE000C1005060704729B17C4A527A02437B4B54
:101DF0005A7204E0794A527A8243784B5A72704799
:101E00007A490860704701460020744A506820F4FF
:101E100040400843506070470021754A11706F4A76
:101E200082F82010012802D0042808D103E0012103
:101E30006F4A117004E005216D4A117000E000BF87
:101E400000BF70476B49086070476449096A0143E5
:101E5000624A11627047674944390860704730B57B
:101E600000210022002400235C4D6D6805F00C0168
:101E700021B1042905D0082923D105E05E4D056074
:101E800022E05D4D05601FE0544D6D6805F4701251
:101E9000524D6D6805F48034022505EB92421CB961
:101EA000564D554305600BE04C4D6D6815F4003FF1
:101EB00003D0524D5543056002E04F4D5543056038
:101EC00002E04D4D056000BF00BF444D6D6805F058
:101ED000F00109094A4D6B5C0568DD4045603F4DE6
:101EE0006D6805F4E061090A454D6B5C4568DD40AD
:101EF00085603A4D6D6805F46051C90A404D6B5CD0
:101F00004568DD40C560354D6D6805F44041890B7D
:101F10003C4D6B5CC568B5FBF3F5056130BD29B17F
:101F20002E4A526902432D4B5A6104E02B4A5269F2
:101F300082432A4B5A61704729B1284A9269024369
:101F4000264B9A6104E0254A92698243234B9A61A9
:101F5000704729B1214AD2690243204BDA6104E07B
:101F60001E4AD26982431D4BDA61704729B11B4A70
:101F7000D2680243194BDA6004E0184AD2688243FF
:101F8000164BDA60704729B1144A12690243134BA9
:101F90001A6104E0114A12698243104B1A617047BA
:101FA00014494039086070470F49C86470470B49AD
:101FB000C87170470948406A40F08070074948621C
:101FC000704701460020054A92680A4201D001206C
:101FD00000E00020704701498872704700100240FD
:101FE0000000FFF8FFFFF6FE00004242D800424228
:101FF000201002408004424200127A0000093D0095
:10200000B4000020C400002010B50446FE488442FD
:1020100008D10121C014FFF7A9FF0021E014FFF748
:10202000A5FFC4E0B4F1804F08D101210846FFF7B5
:10203000AAFF00210120FFF7A6FFB8E0F348844281
:1020400008D101210220FFF79EFF00210220FFF7A7
:102050009AFFACE0EE48844208D101210420FFF74A
:1020600092FF00210420FFF78EFFA0E0E9488442A0
:1020700008D101210820FFF786FF00210820FFF783
:1020800082FF94E0E448844208D101211020FFF748
:102090007AFF00211020FFF776FF88E0DF488442B6
:1020A00008D101212020FFF76EFF00212020FFF73B
:1020B0006AFF7CE0DA48844208D101214014FFF72E
:1020C00055FF00216014FFF751FF70E0D5488442AE
:1020D00009D10121C804FFF749FF00214FF4002076
:1020E000FFF744FF63E0D048844209D1012108058D
:1020F000FFF73CFF00214FF48010FFF737FF56E059
:10210000CA48844209D101214805FFF72FFF002169
:102110004FF40010FFF72AFF49E0C548844208D178
:1021200001214020FFF72FFF00214020FFF72BFF68
:102130003DE0C048844208D101218020FFF723FF01
:1021400000218020FFF71FFF31E0BB48844208D107
:1021500001218015FFF717FF0021A015FFF713FFDE
:1021600025E0B648844209D101210804FFF7FEFEAC
:1021700000214FF48030FFF7F9FE18E0B0488442A8
:1021800009D101214804FFF7F1FE00214FF400308E
:10219000FFF7ECFE0BE0AB48844208D10121880434
:1021A000FFF7E4FE00214FF48020FFF7DFFE10BDB3
:1021B00000220288944B98420ED0994B98420BD043
:1021C000B0F1804F08D0914B984205D0904B984287
:1021D00002D0904B984204D14FF68F731A404B882F
:1021E0001A438D4B984207D08C4B984204D04FF63F
:1021F000FF431A40CB881A4302808B8883850B8863
:102200000385814B98420BD0854B984208D08B4B6D
:10221000984205D08A4B984202D08A4B984201D10D
:102220000B7A038601238382704770B50024002255
:102230000023058C4FF6FE7635400584028C83889A
:10224000048B4FF68F752C40B51E2C400D882C4307
:10225000751E2A400D892A434D882A436A4DA8429B
:102260000BD06F4DA84208D0744DA84205D0744DD4
:10227000A84202D0734DA84213D14FF6F7752A40F9
:102280004D892A434FF6FB752A408D882A434FF625
:10229000FF652B404FF6FF552B408D892B43CD8991
:1022A0002B4383800483CD888586028470BD70B5FE
:1022B000002400220023058C4FF6EF76354005847C
:1022C000028C8388048B48F6FF752C404FF6FF453F
:1022D0002C400D884FF6FF7606EA05252C434FF675
:1022E000DF752A400D8906EA05152A434D8806EA5E
:1022F00005152A43444DA84202D0494DA8421DD19C
:102300004FF67F752A404D894FF6FF7606EA051590
:102310002A434FF6BF752A408D8806EA05152A43E1
:102320004FF6FF352B404FF2FF752B408D8906EAA3
:1023300085052B43CD8906EA85052B4383800483DD
:10234000CD880587028470BD70B50024002200236B
:10235000058C4FF6FF6635400584028C8388848B9C
:102360004FF68F752C404FF6FC752C400D882C4392
:102370004FF6FF552A400D894FF6FF7606EA0525F0
:102380002A434D8806EA05252A431F4DA84202D05C
:10239000234DA8421DD14FF2FF752A404D894FF6BB
:1023A000FF7606EA05252A434FF6FF352A408D8839
:1023B00006EA05252A434EF6FF752B404DF6FF75BC
:1023C0002B408D8906EA05152B43CD8906EA0515B4
:1023D0002B4383808483CD888587028470BD70B54C
:1023E000002200230024058C4EF6FF76354005843C
:1023F000038C8488828B48F6FF752A404FF6FF4590
:102400002A400D8820E00000002C0140000400401C
:1024100000080040000C0040001000400014004084
:1024200000340140004C0140005001400054014084
:1024300000180040001C0040002000400040014007
:1024400000440140004801404FF6FF7606EA0525AA
:102450002A434DF6FF752B400D8906EA05352B43BF
:102460004D8806EA05352B43FA4DA84202D0FA4DB5
:10247000A84208D14BF6FF752C408D894FF6FF76A8
:1024800006EA85152C4384808283CD88A0F84050CD
:10249000038470BD828B4FF2FF331A408283828B9C
:1024A0004FF6FF7303EA01231A4382837047F0B5A6
:1024B0000C461546002200210026078C4EF6FF7CB4
:1024C00007EA0C070784828B018C4FF6FF7707EA37
:1024D000043640F6FF473A404FF6FF7707EA0527F4
:1024E0003A434FF6FF7707EA03373A43D94FB842EA
:1024F0000ED0D94FB8420BD0B0F1804F08D0D74F93
:10250000B84205D0D64FB84202D0D64FB84206D115
:102510004DF6FF77394046F48057394305E047F6DA
:10252000FF57394044F48057394382830184F0BD1A
:10253000828B4FF6F3731A408283828B0A43828325
:102540007047F0B50C461546002200210026078C86
:102550004FF6FF6C07EA0C070784828B018C4FF65D
:10256000FF7707EA04264FF60C773A404FF6FF77DD
:1025700007EA03172F433A43B64FB8420ED0B64F7F
:10258000B8420BD0B0F1804F08D0B44FB84205D05C
:10259000B34FB84202D0B34FB84206D14FF6FF57FF
:1025A000394046F48077394305E04FF2FF57394010
:1025B00044F48077394382830184F0BD028B4FF26B
:1025C000FF331A400283028B4FF6FF7303EA0123A5
:1025D0001A4302837047F0B50C46154600220021CD
:1025E0000026078C4FF6EF7C07EA0C070784028B66
:1025F000018C4FF6FF7707EA041640F6FF473A4092
:102600004FF6FF7707EA03373A434FF6FF7707EABB
:1026100005273A438F4FB8420ED08F4FB8420BD0A8
:10262000B0F1804F08D08D4FB84205D08C4FB842E2
:1026300002D08C4FB84206D14FF6DF77394046F0D2
:102640001007394305E04FF65F77394044F0100733
:10265000394302830184F0BD028B4FF6F3731A40B5
:102660000283028B0A4302837047F0B50C4615467D
:1026700000220021068C4FF6FE773E400684028B36
:10268000018C4FF60C7632407E1C06EA03162E4370
:102690003243704EB0420ED06F4EB0420BD0B0F10C
:1026A000804F08D06D4EB04205D06D4EB04202D082
:1026B0006C4EB04206D14FF6FD76314044F0010633
:1026C000314305E04FF6F576314044F001063143E1
:1026D00002830184F0BD70B505460C465D48854215
:1026E0000ED05D4885420BD0B5F1804F08D05B48D5
:1026F000854205D05A48854202D05A48854200D1C9
:1027000000E000BF208850B92389A288618828464C
:10271000FFF7ABFFE1882846FFF79EFF25E0208802
:1027200004280AD12389A28861882846FFF753FF2D
:10273000E1882846FFF742FF17E0208808280AD1E1
:102740002389A28861882846FFF7FBFEE188284696
:10275000FFF7EEFE09E02389A28861882846FFF78B
:10276000A6FEE1882846FFF795FE70BD2DE9F041F1
:1027700005460C4600260127608808B9022600E0BD
:102780000026A088012801D1022700E00127208827
:10279000A0B92389A28861882846FFF766FFE188EF
:1027A0002846FFF759FF23893A4631462846FFF766
:1027B00012FFE1882846FFF701FF13E02389A28872
:1027C00061882846FFF707FFE1882846FFF7F6FEF5
:1027D00023893A4631462846FFF747FFE1882846D5
:1027E000FFF73AFFBDE8F0810A884B881A438B88CF
:1027F0001A43CB881A430B891A434B891A438B8996
:102800001A43A0F8442070474FF6FF7181800021E1
:102810000180C180418001727047002101804180A8
:102820008180C180018141818181C1817047002106
:1028300001804180012181800021C1800181704798
:102840000021018041808180C1800181418181819D
:1028500070470000002C014000340140000400409B
:1028600000080040000C004021B1028842F0010243
:10287000028004E002884FF6FE731A40028070471F
:1028800031B1B0F8442042F40042A0F8442005E001
:10289000B0F84420C2F30E02A0F8442070471AB1E9
:1028A00083890B43838102E083898B438381704753
:1028B0008182704741EA0203A0F8483070471AB19C
:1028C00083890B43838102E083898B438381704733
:1028D00001894FF6F8721140018170470A460021C4
:1028E00001894FF68F73194011430181704730B54C
:1028F00004460D4629462046FFF7F0FF208940F0A8
:102900000700208130BD2DE9F04104460D461646F2
:102910001F46602D06D13B46012231462046FFF777
:102920005AFE05E03B46012231462046FFF79DFE58
:1029300029462046FFF7D2FF208940F0070020817A
:10294000BDE8F08130B50C4600210189C9B24FF6CF
:10295000FF7505EA0325154325432943018130BD51
:102960002DE9F04105460E46174698460024434699
:102970003A4631462846FFF7E5FF2C894FF6F870B6
:10298000044044F007044FF68F70044044F0700494
:102990002C81BDE8F081F0B504460D4616461F4671
:1029A0003B46324629462046FFF7CCFF208940F4BB
:1029B00080402081F0BD0185828270470A46002157
:1029C00001884FF68F731940114301807047F0B5AD
:1029D0000C4615461E460021002200230189028B69
:1029E000038C4FF6F877394021434FF6FC473A40C5
:1029F00040F201173A434FF6DD773B404FF6FF7741
:102A000007EA06172F433B43018102830384F0BD8D
:102A10000A460021018B4FF68F7319401143018341
:102A200070470A460021018B48F6FF7319404FF6A4
:102A3000FF7303EA02231943018370470A4600210A
:102A4000818B4FF68F7319401143818370470A467B
:102A50000021818B48F6FF7319404FF6FF7303EA9C
:102A6000022319438183704721B1028842F080021A
:102A7000028004E002884FF67F731A40028070479C
:102A800021B1828842F00402828004E082884FF6FD
:102A9000FB731A408280704721B1828842F008029D
:102AA000828004E082884FF6F7731A408280704774
:102AB00021B1828842F00102828004E082884FF6D0
:102AC000FE731A40828070470A460021018B4FF640
:102AD000F77319401143018370470A460021018BA7
:102AE0004FF2FF7319404FF6FF7303EA02231943B5
:102AF000018370470A460021818B4FF6F773194016
:102B00001143818370470A460021818B4FF2FF7386
:102B100019404FF6FF7303EA02231943818370477C
:102B20000A460021018B4FF6FB73194011430183C4
:102B300070470A460021018B4FF6FF3319404FF6CC
:102B4000FF7303EA02231943018370470A460021F9
:102B5000818B4FF6FB7319401143818370470A46FE
:102B60000021818B4FF6FF3319404FF6FF7303EAC4
:102B700002231943818370470A460021018B4FF6D7
:102B80007F7319401143018370470A460021018B6E
:102B9000C1F30E014FF6FF7303EA022319430183C9
:102BA00070470A460021818B4FF67F73194011430D
:102BB000818370470A460021818BC1F30E014FF6D5
:102BC000FF7303EA02231943818370470A460021F9
:102BD000018C4FF6FD7319401143018470470A467A
:102BE0000021018C4FF6F77319401143018470479F
:102BF0000A460021018C4FF6DF7319404FF6FF7330
:102C000003EA02131943018470470A460021018C2C
:102C10004FF67F7319404FF6FF7303EA021319430F
:102C2000018470470A460021018C4FF6FF5319407A
:102C30004FF6FF7303EA02231943018470470A46E3
:102C40000021018C4FF2FF7319404FF6FF7303EA26
:102C500002231943018470470A460021018C4DF676
:102C6000FF7319404FF6FF7303EA023319430184DF
:102C7000704730B5002301248C40A3B2048C9C43E0
:102C80000484048C02FA01F5ADB22C43048430BDF7
:102C900030B5002304248C40A3B2048C9C430484EC
:102CA000048C02FA01F5ADB22C43048430BD70B53A
:102CB0000346002000241846183001258D40ACB290
:102CC0001D8CA5431D8409B1082909D100EB6100C1
:102CD000056825F0700505600568154305600EE080
:102CE0000D1FC5F34E052844056825F4E045056031
:102CF00005684FF6FF7606EA02263543056070BD8B
:102D000021B1028842F00202028004E002884FF6FC
:102D1000FD731A400280704721B1028842F004021C
:102D2000028004E002884FF6FB731A40028070476D
:102D300021B1828842F08002828004E082884FF6CE
:102D40007F731A408280704702884FF6F7731A40EB
:102D5000028002880A430280704782884FF68F7390
:102D60001A40828082880A438280704702894FF627
:102D7000F8731A40028102890A430281704702896E
:102D80004FF67F731A40028102890A43028170471D
:102D900081847047818570478186704701877047BD
:102DA00081877047A0F84010704702884FF6FF43B4
:102DB0001A40028002880A43028070470146888ECA
:102DC00070470146088F70470146888F704701465B
:102DD000B1F8400070470146888C70470146088D65
:102DE000704702460020138A0B4201D0012000E008
:102DF00000207047CA430282704730B50246002067
:102E000000230024158A05EA0103958905EA0104D7
:102E100013B10CB1012000E0002030BDCA43028292
:102E20007047000010B50446FB48844209D10121D7
:102E30008803FFF79BF800214FF48040FFF796F8D6
:102E400032E0F648844209D101214804FFF79BF89B
:102E500000214FF40030FFF796F825E0F048844257
:102E600009D101218804FFF78EF800214FF480205A
:102E7000FFF789F818E0EB48844209D10121C80422
:102E8000FFF781F800214FF40020FFF77CF80BE0FA
:102E9000E548844208D101210805FFF774F80021B4
:102EA0004FF48010FFF76FF810BD2DE9F04786B0A2
:102EB00005460E460024A24600BFA1460027B08961
:102EC00000B100BF2F462C8A4CF6FF700440F088FA
:102ED00004432C82AC894EF6F3100440B08831894B
:102EE0000843718908430443AC81AC8A4FF6FF4024
:102EF0000440B0890443AC8201A8FEF7B0FFC64885
:102F0000874202D1DDF810A001E0DDF80CA0A8890D
:102F100010F4004F08D00AEBCA0000EB0A10316829
:102F20004900B0FBF1F807E00AEBCA0000EB0A1019
:102F300031688900B0FBF1F86420B8FBF0F00401BF
:102F40002009642101FB1089A88910F4004F08D0E2
:102F5000322000EBC900B0FBF1F000F007000443A1
:102F600008E0322000EB09106421B0FBF1F000F022
:102F70000F0004432C8106B0BDE8F0874FF41651D2
:102F8000016000218180C18001810C2141810021EB
:102F90008181704710B502460020108A4FF2FF036E
:102FA00018400B884C8823438C882343CC882343C8
:102FB0001843108210BD0021018041808180C180B2
:102FC000704721B1828942F40052828104E08289F3
:102FD0004DF6FF731A4082817047F0B50346002416
:102FE000002600250020A1F510676A3F00D100BF30
:102FF0001846C1F3421401F01F06012707FA06F52F
:10300000012C01D10C3004E0022C01D1103000E081
:1030100014301AB107682F43076002E00768AF4316
:103020000760F0BD1AB1838A0B43838202E0838A72
:103030008B4383827047028A4FF6F0731A400282F4
:10304000028A0A430282704782894FF2FF731A4054
:10305000828182890A438281704721B1828942F04C
:103060000202828104E082894FF6FD731A40828158
:103070007047028A4FF6DF731A400282028A0A43BF
:103080000282704721B1028A42F48042028204E047
:10309000028A4BF6FF731A4002827047C1F308029E
:1030A0008280704701468888C0F308007047818994
:1030B00041F0010181817047028BD2B20283028B01
:1030C00042EA012202837047028B02F47F420283AC
:1030D000028B0A430283704721B1828A42F02002A8
:1030E000828204E0828A4FF6DF731A408282704740
:1030F00021B1828A42F01002828204E0828A4FF675
:10310000EF731A408282704721B1828A42F008022E
:10311000828204E0828A4FF6F7731A4082827047F7
:1031200021B1828942F40042828103E08289C2F3A4
:103130000E028281704721B1828A42F4006282824B
:1031400004E0828A4FF2FF731A4082827047828ABB
:103150004FF6FB731A408282828A0A43828270474A
:1031600021B1828A42F00202828204E0828A4FF612
:10317000FD731A408282704702460020B1F5007F3D
:1031800000D100BF13880B4201D0012000E00020D5
:10319000704701F40072B2F5007F00D100BFCA434E
:1031A0000280704770B502460024002300250020ED
:1031B000A1F510666A3E00D100BFC1F3421501F0CF
:1031C0001F03012606FA03F3012D02D1968933402D
:1031D00006E0022D02D1168A334001E0968A334080
:1031E0000C12012606FA04F41688344013B10CB10F
:1031F000012000E0002070BD10B500220023A1F5E1
:1032000010646A3C00D100BF0A1201249440A3B2AA
:10321000DC43048010BD0000003801400044004041
:1032200000480040004C00400050004010B56FF0D6
:103230000400FEF7BFFA2D4800682D49B0FBF1F0FD
:103240002C4908700846007800EB4001C1EBC01023
:103250004FF6FF7101EAC0002749088010BD014602
:10326000244A12784A434FF0E0235A6100229A61BF
:103270001A46126942F001021A6100BF4FF0E022C3
:10328000106910F0010F02D010F4803FF6D04FF01B
:10329000E022126922F001024FF0E0231A610022BD
:1032A0009A6170470146144A12884A434FF0E0235E
:1032B0005A6100229A611A46126942F001021A61AB
:1032C00000BF4FF0E022106910F0010F02D010F49F
:1032D000803FF6D04FF0E022126922F001024FF059
:1032E000E0231A6100229A61704700000400002068
:1032F00000127A00C8000020CA00002010B54FF468
:10330000A060FEF707FA10BD10B588B0044640F281
:10331000E730ADF818004720ADF814000020ADF8F4
:103320001A00ADF8160005A91B48FEF741FF602002
:10333000ADF804000120ADF80600A0B2ADF80A0017
:103340000020ADF80C0001A91348FEF76EFF08211C
:103350001148FFF7B9FB01210F48FFF785FB012159
:103360000D48FFF781FA08B010BD08B50121022011
:10337000FEF7EFFD01210C20FEF7DEFDC020ADF8C9
:10338000000018208DF8030003208DF80200694624
:103390000248FEF71BFB08BD000400400008014086
:1033A00010B586B0044601210805FEF7D2FD0121C3
:1033B0001020FEF7C1FD01212020FEF7BDFD4FF4D6
:1033C0008050ADF8140003208DF8160018208DF8F9
:1033D000170005A9FB48FEF7F9FA4FF48050ADF845
:1033E000140010208DF8170003208DF8160005A991
:1033F000F548FEF7EBFA4FF48051F348FEF791FBE6
:1034000001940020ADF80800ADF80A00ADF80C00FA
:10341000ADF810000C20ADF80E0001A9EB48FFF745
:1034200044FD0121E948FFF7CCFD06B010BD70470F
:10343000E649888000BFE549098811F0400FFAD0BD
:1034400070472DE9FC5F06460C4615460027B84636
:10345000B946BA46BB46002001900090B5F5806F92
:1034600002DB40F2FF3700E02F46B4F5806F02DB4D
:1034700040F2FF3800E0A0464FEA272907F0FF0A94
:103480004FEA282B08F0FF000190FF20FFF7D0FF44
:10349000FF20FFF7CDFF3046FFF7CAFF0720FFF7F9
:1034A000C7FF0320FFF7C4FF0620FFF7C1FF019805
:1034B000FFF7BEFF5846FFF7BBFF5046FFF7B8FFC8
:1034C0004846FFF7B5FF06F110000199084458443B
:1034D00050444844C0B200900098C043C0B200902D
:1034E0000098FFF7A5FF00BFB848008810F0400F14
:1034F000FAD00220FFF7D6FEBDE8FC9F2DE9FC5F65
:1035000006460C4615460027B846B946BA46BB469D
:10351000002001900090B5F5806F02DB40F2FF378C
:1035200000E02F46B4F5806F02DB40F2FF3800E088
:10353000A0464FEA272907F0FF0A4FEA282B08F098
:10354000FF000190FF20FFF773FFFF20FFF770FFE0
:103550003046FFF76DFF0720FFF76AFF0320FFF7F4
:1035600067FF1E20FFF764FF0198FFF761FF5846D1
:10357000FFF75EFF5046FFF75BFF4846FFF758FF37
:1035800006F1280001990844584450444844C0B208
:1035900000900098C043C0B200900098FFF748FF29
:1035A00000BF8A48008810F0400FFAD00220FFF7D1
:1035B00079FEBDE8FC9F2DE9F04F8BB081460C46AB
:1035C00015461E46DDE914784FF0000AD346002068
:1035D0000A90099008900790069005900490039037
:1035E000029001900090A346AA460597CDF8188056
:1035F0004FEA2A200A900AF0FF0009904FEA2B2098
:1036000008900BF0FF000790DDF818804FEA2820A3
:103610000490DDF8188008F0FF000390059F381231
:103620000290059FF8B20190FF20FFF701FFFF20F5
:10363000FFF7FEFEFE20FFF7FBFE0E20FFF7F8FE71
:103640008320FFF7F5FE1E20FFF7F2FE0420FFF7B0
:10365000EFFE4846FFF7ECFE0798FFF7E9FE0898F3
:10366000FFF7E6FE0998FFF7E3FE0A98FFF7E0FE92
:103670003046FFF7DDFE0198FFF7DAFE0298FFF70C
:10368000D7FE0398FFF7D4FE0498FFF7D1FE09F2A6
:10369000B110811907980144089801440998014420
:1036A0000A98014401980144029801440398014496
:1036B00004980844C0B200900098C043C0B2009083
:1036C0000098FFF7B5FE00BF4048008810F0400F9B
:1036D000FAD00220FFF7E6FD0BB0BDE8F08F2DE930
:1036E000FC5F06460C4615460027B846B946BA4662
:1036F000BB460020019000902F46A0464FEA2729A4
:1037000007F0FF0A4FEA282B08F0FF000190FF2086
:10371000FFF78EFEFF20FFF78BFE3046FFF788FE97
:103720000720FFF785FE0420FFF782FE1E20FFF72B
:103730007FFE0198FFF77CFE5846FFF779FE504662
:10374000FFF776FE4846FFF773FE06F12900019960
:103750000844584450444844C0B200900098C043C4
:10376000C0B200900098FFF763FE00BF17480088C2
:1037700010F0400FFAD00220FFF794FDBDE8FC9F47
:1037800010B50024FF20FFF753FEFF20FFF750FE87
:10379000FE20FFF74DFE0220FFF74AFE0520FFF74F
:1037A00047FE0524E043C4B22046FFF741FE00BFB8
:1037B0000648008810F0400FFAD00220FFF772FD93
:1037C00010BD0000001001400014014000500040F6
:1037D00070B504460025FF20FFF72AFEFF20FFF703
:1037E00027FE2046FFF724FE0220FFF721FE0120DE
:1037F000FFF71EFEE01CC5B2E843C5B22846FFF73E
:1038000017FE00BF1D48008810F0400FFAD00220BC
:10381000FFF748FD70BD10B540F2FF3200210E20C9
:10382000FFF70FFE40F2FF3200210D20FFF709FEE7
:1038300040F2FF3200210C20FFF703FE40F2FF327E
:1038400000210B20FFF7FDFD40F2FF320021042094
:10385000FFF7F7FD40F2FF3200210320FFF7F1FDF3
:1038600040F2FF3200210220FFF7EBFD40F2FF3271
:1038700000210120FFF7E5FD10BD000000500040D1
:10388000014600BF704700BF5B4A128812F0400F2C
:10389000FAD0C2B2584B1B1D1A807047564909888E
:1038A00011F0200F34D05449091D0988C8B253497A
:1038B000097811F0800F2BD15049097811F0400F91
:1038C0000CD00A2803D000214C4A117020E04B494B
:1038D000097841F08001494A117019E00D2806D19C
:1038E0004649097841F04001444A117010E04349CB
:1038F000097801F03F01424A505440490978491C77
:103900003E4A1170114609783F2901DD00211170EE
:1039100070472DE9F84F05460E46300100F0F8FAE1
:103920008146384905FB01F000F0F2FA824649462B
:1039300000F00CFA0746384600F0CAFA84B2204676
:1039400000F0E6FA8346394600F0C2FB82464FF0AB
:10395000834100F0F1FA814600F0BAFA80464FF652
:10396000FF7000EA041404EB080084B22648806962
:1039700040F00400244988610846806940F4804092
:1039800088612248006820F47F602049086008466A
:10399000006840F40B6008601B48C06840F4804039
:1039A0001949C8600846C06820F48040C8601248C1
:1039B00008300480001D008842F20C0108430E49C3
:1039C0000C3108800846008840F480700880084662
:1039D000008840F02000088025208DF8000003209A
:1039E0008DF801008DF8020001208DF80300684673
:1039F000FDF795FEBDE8F88F00380140CC000020AF
:103A0000D400002040420F00001002400408014092
:103A1000704700000FB4044910B503AA029800F0E3
:103A2000D5F810BC5DF814FBD00000202DE9F04162
:103A30000E460446002020622046E168884730B3E5
:103A4000252805D0D4E901219047206A401CF2E7DF
:103A5000E168204600278847050018D0A5F14100FD
:103A6000192802D820354FF40067324629462046EF
:103A70002760FCF797FB40B1012804D0F61D26F023
:103A800007060836D8E7361DD6E72846DAE7206A63
:103A9000BDE8F0812DE9F041064600241068752943
:103AA000314616A511D0AFF30080002803DAC0F12B
:103AB000000013A507E031688A0701D511A502E0CF
:103AC000490704D510A5012401E0AFF300800021CF
:103AD0000A2306F1240707E0B0FBF3F203FB120010
:103AE000303078541046491C0028F5D123462A4628
:103AF0003046BDE8F04100F00DB8000000000000C5
:103B00002D0000002B0000002000000070477047CF
:103B1000704770472DE9F0470D4699469246044696
:103B200000F124080168880604D5E06921F010013D
:103B3000216000E00120A84202DDA0EB050700E0C3
:103B40000027A16907EB050202EB0900A1EB0000C9
:103B5000A0612078C00602D42046AFF30080002682
:103B600008E0D4E901211AF806009047206A401CB9
:103B7000761C20624E45F4DB2078C0060AD520462C
:103B8000AFF3008006E0D4E9012130209047206A9D
:103B9000401C2062381EA7F10107F4DC07E0D4E9DD
:103BA000012118F805009047206A401C2062281E59
:103BB000A5F10105F3DC2046AFF300802078000674
:103BC00002D50220BDE8F0870120FBE7074B70B566
:103BD0000D467B4400F011F80446284600F020F81A
:103BE00010B14FF0FF3070BD204670BDB1FCFFFF3B
:103BF00001694A1C02610878704700B58FB0CDE9B1
:103C000001310021059105497944CDE903101146A0
:103C10006846FFF70BFF0FB000BD0000E5FFFFFF98
:103C2000007B00F080007047754600F029F8AE4632
:103C300005006946534620F00700854618B020B5B8
:103C4000FDF756FDBDE820404FF000064FF000079D
:103C50004FF000084FF0000B21F00701AC46ACE834
:103C6000C009ACE8C009ACE8C009ACE8C0098D46A1
:103C700070470446AFF300802046FCF7A5FA000029
:103C8000004870471401002090EA010F48BF81F0FE
:103C9000004100F12E82421A3CBF801A89184FEA77
:103CA000D0524FF07F4C1CEA410FA2EBD15318BF0A
:103CB0009CEA026F00F03B804FF0004C4CEA002081
:103CC0004CEA012121FA03FC10EB0C0C1ED202F18C
:103CD000FF325FEA1C2040EBC25038BF70471CF037
:103CE0007F0F4FEA400C18BFBCF17F4F38BF7047C1
:103CF000C3F12003994008BF20F00100BCF17F4FC1
:103D000038BF7047A0F1C04000F0DDB94FEA3C0079
:103D1000000A40EBC25028BF1CF0FF0F4FEA400CD6
:103D2000E6D018BFBCF17F4F38BF7047EAE79CEA86
:103D3000026F05D010EA5C0F08BF00F0004070472A
:103D400010B500F07AF900BF64FBBE3E4FF47F0C63
:103D50001CEAD0121EBF1CEAD11392EA0C0F93EAA0
:103D60000C0F00F0858090EA010F48BF42F480728A
:103D700040F4000C41F400002CF07F4120F07F4023
:103D800000B58142A2EB03020FF2081CACEB504ECF
:103D9000C0F100009EF800E04FEA4E0E00FB0EFC62
:103DA00038BF49004FEA2C1C02F5FA020CFB0EF357
:103DB0004FEACE1E4FEA112C4FEAC1210EEB635E93
:103DC00042EB22420EFB0CFC4FEA1C5300FB03119A
:103DD0004FEA112C4FEA01310EFB0CFC4FEADC4C90
:103DE00000FB0C11C14228BF09184CEB03335DF8EE
:103DF00004EB10EB410143EBC250B2F57C0F38BF2E
:103E0000704729D512F0F00F1CBF00F1C04000F040
:103E100000407047008182838485868788898B8CE7
:103E20008D8E8F919293959697999A9C9D9FA0A223
:103E3000A3A5A7A8AAACAEB0B2B3B5B7B9BCBEC073
:103E4000C2C5C7C9CCCED1D4D7D9DCDFE2E6E9EC14
:103E5000F0F3F7FAFE0000004FEA400C0CF1807C12
:103E6000BCF17E4F28BF7047B0F1C04000F02BB9C5
:103E700090EA010F0CEAD11348BF42F48072624508
:103E800038BF634507D213F47F0F16D080EA0100D4
:103E900000F00040704710B500F0CFF8097EFC3EFE
:103EA00000F005B880EA010000F00040704780EAA9
:103EB000010000F0004000F006B912F47F0F04BFCB
:103EC0000248704780EA010000F0FDB80000C07FA2
:103ED000C10DD1F19E0206DB4FEA002343F00043FF
:103EE00023FA02F07047004207D54FEA4001B1F1D2
:103EF000FE4F02D24FF00000704710B500F09DF861
:103F000049922480002070476FEA2000704700002B
:103F1000B0FA80F310FA03F2C3F19D030AD0D90579
:103F200001EB1220530638BF704700F1010008BFB3
:103F300020F00100704700004FF47F0C1CEAD01203
:103F40001EBF1CEAD11392EA0C0F93EA0C0F00F08B
:103F5000478090EA010F48BF42F480724FF0004C56
:103F60004CEA00204CEA012102EB0302A0FB011302
:103F7000A2F50002002918BF43F001035B0028BF2F
:103F80004FEA330342EB22425FEA132C4CEBC25060
:103F90002EBFBCEB436FB2F57C0F70474FEA036C4A
:103FA000BCF1004F08BF20F00100B2F57C0F38BF14
:103FB00070470BD582F0FF0212F5803FC8BF7047F3
:103FC00000F1C040D8BF00F00040704700F5000C81
:103FD0005FEA4C0C48BF7047B0F1C04000F073B8C6
:103FE00090EA010F0CEAD11348BF42F48072624597
:103FF00038BF634504D280EA010000F000407047FA
:1040000010B500F01AF800BF8900013E00F007B8B3
:1040100000F009B85FEA410C5FEA1C6C08D080EA46
:10402000010000F050B85FEA400C5FEA1C6CF6D16A
:104030004FF00040A0F5800070470EF1020E2EF008
:10404000030E5EF8044B244204D44FEA4102B2F15D
:104050007F4F11D84FEA4003B3F17F4F0CD80ED1F8
:104060004FEAD07CB2F17F4F0CEB4C0C0CF1020C00
:1040700008BF4CEBD17C04E04FF0080C01E04FEAA4
:10408000D17C0CEB4C0324FA03F404F00704B4F1E4
:10409000040C06D20EEB840CBDE810404CF0010C71
:1040A0006047DFE80CF0070802024FF00040A0F57F
:1040B000800010BD0846420018BFD2F1807288BF50
:1040C00000F0004010BDFF2141EAD050C00570470C
:1040D00080F0004090EA010F7FF5DDAD81F00041F6
:1040E00000F007B890EA010F48BF81F000413FF5AA
:1040F000D2AD421A04D882F00042A0EB0200114473
:104100004FEAD0524FF07F4C1CEA410FA2EBD15343
:1041100018BF9CEA026F4AD04FF0004C4CEA0020D6
:104120004CEA012121FA03FCB0EB0C0C0FD412F085
:10413000FE0F36D05FEA4C001DD5001240EBC25096
:1041400038BF70471CF03F0F18BF70470BE0A2F15B
:1041500001025FEA1C2040EBC25038BF70471CF0E0
:104160007F0F18BF7047C3F12003994014BF401E52
:1041700020F00100704780084FEA122308BF704703
:10418000B0FA80FCA2EB0C02CCF1280C60FA0CF027
:1041900093EA122F04BF00EBC25070474FEAC3707E
:1041A0007047130A5FEADC1008BF7047F6E79CEA25
:1041B000026F04D010EA5C0F08BF0020704710B5F2
:1041C000FFF73BFF40DFF63E81F000407047000004
:1041D000F041000800000020D40000006C0100083D
:1041E000C4420008D4000020A40600008801000892
:1041F0000401000000A24A040000000000000000CA
:10420000010203040607080911001246173F18505F
:1042100019031A78320029502C782A00427F4D0960
:1042200063E064FF65206600670013F00D810FC531
:10423000142122FF23012434253C26A12B006BAA44
:1042400013FF695D900A910192019301945F955368
:104250009611971A983D995A9A1E9B009C25A7651E
:10426000A8659E81A6067E0C7F16802A814E8261FB
:10427000836F847B8586868E879788A489AF8AC55D
:104280008BD78CE88D20A980AA80ACFF33002299BF
:1042900023034A00491347084B144C1746050CD01A
:1042A0000EF54D00000000000102030401020304AA
:1042B00006070809020406080000000000000000CC
:0442C00000000000FA
:0400000508000131BD
:00000001FF
